{
  "contractName": "Adoption",
  "abi": [
    {
      "constant": true,
      "inputs": [
        {
          "internalType": "uint256",
          "name": "",
          "type": "uint256"
        }
      ],
      "name": "adopters",
      "outputs": [
        {
          "internalType": "address",
          "name": "",
          "type": "address"
        }
      ],
      "payable": false,
      "stateMutability": "view",
      "type": "function"
    },
    {
      "constant": true,
      "inputs": [
        {
          "internalType": "uint256",
          "name": "petId",
          "type": "uint256"
        }
      ],
      "name": "isExisting",
      "outputs": [
        {
          "internalType": "bool",
          "name": "",
          "type": "bool"
        }
      ],
      "payable": false,
      "stateMutability": "view",
      "type": "function"
    },
    {
      "constant": false,
      "inputs": [
        {
          "internalType": "uint256",
          "name": "petId",
          "type": "uint256"
        }
      ],
      "name": "adopt",
      "outputs": [
        {
          "internalType": "bool",
          "name": "",
          "type": "bool"
        }
      ],
      "payable": false,
      "stateMutability": "nonpayable",
      "type": "function"
    },
    {
      "constant": true,
      "inputs": [],
      "name": "getAdopters",
      "outputs": [
        {
          "internalType": "address[20]",
          "name": "",
          "type": "address[20]"
        }
      ],
      "payable": false,
      "stateMutability": "view",
      "type": "function"
    }
  ],
  "bytecode": "0x608060405234801561001057600080fd5b5061040e806100206000396000f3fe608060405234801561001057600080fd5b506004361061004c5760003560e01c80633de4eb171461005157806343ae80d3146100975780638588b2c514610105578063b92cc8cf1461014b575b600080fd5b610059610191565b6040518082601460200280838360005b83811015610084578082015181840152602081019050610069565b5050505090500191505060405180910390f35b6100c3600480360360208110156100ad57600080fd5b8101908080359060200190929190505050610212565b604051808273ffffffffffffffffffffffffffffffffffffffff1673ffffffffffffffffffffffffffffffffffffffff16815260200191505060405180910390f35b6101316004803603602081101561011b57600080fd5b8101908080359060200190929190505050610245565b604051808215151515815260200191505060405180910390f35b6101776004803603602081101561016157600080fd5b8101908080359060200190929190505050610324565b604051808215151515815260200191505060405180910390f35b6101996103b6565b6000601480602002604051908101604052809291908260148015610208576020028201915b8160009054906101000a900473ffffffffffffffffffffffffffffffffffffffff1673ffffffffffffffffffffffffffffffffffffffff16815260200190600101908083116101be575b5050505050905090565b6000816014811061021f57fe5b016000915054906101000a900473ffffffffffffffffffffffffffffffffffffffff1681565b6000808210158015610258575060138211155b61026157600080fd5b600073ffffffffffffffffffffffffffffffffffffffff166000836014811061028657fe5b0160009054906101000a900473ffffffffffffffffffffffffffffffffffffffff1673ffffffffffffffffffffffffffffffffffffffff16141561031a5733600083601481106102d257fe5b0160006101000a81548173ffffffffffffffffffffffffffffffffffffffff021916908373ffffffffffffffffffffffffffffffffffffffff1602179055506001905061031f565b600090505b919050565b6000808210158015610337575060138211155b61034057600080fd5b600073ffffffffffffffffffffffffffffffffffffffff166000836014811061036557fe5b0160009054906101000a900473ffffffffffffffffffffffffffffffffffffffff1673ffffffffffffffffffffffffffffffffffffffff1614156103ac57600190506103b1565b600090505b919050565b60405180610280016040528060149060208202803883398082019150509050509056fea265627a7a723158208cfe3812ff12a1a01cca50af43023e94a4b38679f7a7b9f621da34a36b5971f164736f6c63430005100032",
  "source": "pragma solidity ^0.5.0;\n\ncontract Adoption {\n\taddress[20] public adopters;\n\n\tfunction isExisting(uint petId) public view returns (bool) {\n\t\t\t\t require(petId >= 0 && petId <= 19);\n\t       if(adopters[petId] == address(0)) {\n\t            return true;\n\t        }\n\t        else{\n\t            return false;\n\t        }\n\t        return false;\n\t    }\n\t// Adopting a pet\n\tfunction adopt(uint petId) public returns (bool) {\n\t\trequire(petId >= 0 && petId <= 19);\n\t\tif(adopters[petId] == address(0)) {\n\t\t\tadopters[petId] = msg.sender;\n\t\t\treturn true;\n\t\t}else {\n\t\t\treturn false;\n\t\t}\n\t}\n\n\t// Retrieving the adopters\n\tfunction getAdopters() public view returns (address[20] memory) {\n  \t\treturn adopters;\n\t}\n\n\n}\n",
  "sourcePath": "/home/oriol/Escritorio/DS-project/final_version/Alastria-Evaluation/contracts/Adoption.sol",
  "compiler": {
    "name": "solc",
    "version": "0.5.16+commit.9c3226ce.Emscripten.clang"
  },
  "schemaVersion": "3.4.7",
  "updatedAt": "2022-06-10T16:12:50.735Z",
  "networkType": "ethereum",
  "devdoc": {
    "methods": {}
  },
  "userdoc": {
    "methods": {}
  }
}